:100000000C94370C0C94A01F0C94751F0C944A1F71
:100010000C941F1F0C94F41E0C94C91E0C949E1E6D
:100020000C94731E0C946E0F0C945F0F0C94500F75
:100030000C94680C0C94680C0C94680C0C94680C70
:100040000C94680C0C94F5270C94680C0C94680CB8
:100050000C94680C0C94680C0C94AC200C94291E25
:100060000C94680C0C9442150C94680C0C94680C5D
:100070000C94680C0C94680C0C94680C0C94680C30
:100080000C94680C0C94680C0C94680C0C94680C20
:100090000C94680C0C94680C0C94680C0C94680C10
:1000A0000C94680C0C94680C0C94680C0C94680C00
:1000B0000C94680C0C94680C0C94680C0C94680CF0
:1000C0000C94680C0C94680C0C94680C0C94680CE0
:1000D0000C94680C0C94680C0C94680C0C94680CD0
:1000E0000C94680C2A1C2D1C1C1C201C261C641C37
:1000F000311C351C3B1C3F1C431C491C4D1C511C16
:10010000641C571C5B1C5F1C451D4A1D4F1D591D5F
:10011000631DDC1D6D1D751D7D1D871D911D9B1DA6
:10012000AA1DB41DDC1DBE1DC81DD21D10211E211F
:100130003D214B21662169216C216F21722175219E
:1001400078217B218521084AD73B3BCE016E84BCB8
:10015000BFFDC12F3D6C74319ABD56833DDA3D0021
:10016000C77F11BED9E4BB4C3E916BAAAABE00006A
:1001700000803F05A84CCDB2D44EB93836A9020C48
:1001800050B9918688083CA6AAAA2ABE0000008021
:100190003F00434F4D4D554E49434154494F4E004A
:1001A00044525952554E004552524F525300494EF7
:1001B000464F004543484F0020746F6F206C6F6EB0
:1001C0006720657874727573696F6E2070726576DA
:1001D000656E7465640A0020636F6C6420657874D2
:1001E000727573696F6E2070726576656E74656482
:1001F0000A0047322F4733206261642070617261C8
:100200006D65746572730A005072696E742074694A
:100210006D653A200050726F746563746564205098
:10022000696E0A006D0046696C616D656E742075BB
:100230007365643A200053746174733A20002C2073
:100240004C6F6E67657374206A6F623A2000546F5A
:1002500074616C2074696D653A2000537461747325
:100260003A20002C204661696C65643A20002C20FD
:1002700046696E69736865643A20005072696E74ED
:10028000733A200053746174733A2000B301AE01D5
:10029000A701A00192016F66660044454255473AA6
:1002A000004B494C4C45442E20004D3131332053F6
:1002B000006F6B003F0A0020573A003F0A002057AA
:1002C0003A004649524D574152455F4E414D453ADD
:1002D0004D61726C696E20312E312E302D524338B3
:1002E00020284769746875622920534F5552434549
:1002F0005F434F44455F55524C3A68747470733A8B
:100300002F2F6769746875622E636F6D2F4D617250
:100310006C696E4669726D776172652F4D61726CA2
:10032000696E2050524F544F434F4C5F56455253C5
:10033000494F4E3A312E30204D414348494E455F9A
:10034000545950453A487970657246616220455863
:100350005452554445525F434F554E543A312055FF
:100360005549443A63656465326132662D343161C2
:10037000322D343734382D396231322D63353563BF
:1003800036326633363766660A007A5F6D696E3AD2
:100390002000795F6D696E3A2000785F6D696E3A72
:1003A00020005265706F7274696E6720656E6473A9
:1003B000746F70207374617475730A00536574747C
:1003C000696E672054726176656C20416363656C69
:1003D00065726174696F6E3A200053657474696E5A
:1003E00067205265747261637420416363656C6554
:1003F000726174696F6E3A200053657474696E6738
:10040000205072696E7420416363656C657261741B
:10041000696F6E3A200053657474696E672050727C
:10042000696E7420616E642054726176656C20413F
:100430006363656C65726174696F6E3A2000205A5F
:1004400000205900580020204D61783A2000205AA1
:1004500000205900580020204D696E3A20004F6E50
:1004600020004F666600536F667420656E64737477
:100470006F70733A200020643A0020693A002070BF
:100480003A0043290A0061626C656420286D696E38
:100490002074656D702000436F6C64206578747201
:1004A0007564657320617265200023646566696EFA
:1004B00065202044454641554C545F4B6420002341
:1004C000646566696E65202044454641554C545F1D
:1004D0004B69200023646566696E652020444546AB
:1004E00041554C545F4B7020005049442041757475
:1004F0006F74756E652066696E6973686564212026
:1005000050757420746865206C617374204B702C76
:10051000204B6920616E64204B6420636F6E73749E
:10052000616E74732066726F6D2062656C6F7720E8
:10053000696E746F20436F6E666967757261746966
:100540006F6E2E680A00504944204175746F7475AF
:100550006E65206661696C6564212074696D656FE4
:1005600075740A00504944204175746F74756E6546
:10057000206661696C6564212054656D70657261E7
:100580007475726520746F6F20686967680A00204F
:100590004B643A2000204B693A2000204B703A20EF
:1005A000000A20436C617373696320504944200A38
:1005B000002054753A2000204B753A2000206D61D0
:1005C000783A2000206D696E3A200020643A2000BD
:1005D00020626961733A2000546F6F206661722057
:1005E00066726F6D207265666572656E63652070F8
:1005F0006F696E740A004572726F723A00000000F3
:10060000000000000000000000416374697665206E
:1006100045787472756465723A2000556E6B6E6F22
:10062000776E20636F6D6D616E643A202200205AF0
:100630003A0020593A0020583A00656E6473746F8E
:100640007073206869743A20006563686F3A00250A
:1006500069730025696D2025697300256968202567
:10066000696D202569730025696420256968202546
:10067000696D202569730025697920256964202525
:1006800069682025696D2025697300656E7175653F
:100690007565696E672022004E6F204C696E65207B
:1006A0004E756D6265722077697468206368656352
:1006B0006B73756D2C204C617374204C696E653AB8
:1006C00020004B494C4C45442E20005072696E74FA
:1006D00065722073746F7070656420647565207432
:1006E0006F206572726F72732E204669782074686D
:1006F00065206572726F7220616E6420757365206B
:100700004D39393920746F20726573746172742E9B
:10071000202854656D706572617475726520697307
:100720002072657365742E2053657420697420618E
:10073000667465722072657374617274696E67297C
:100740000A004E6F20436865636B73756D2077698F
:100750007468206C696E65206E756D6265722C2000
:100760004C617374204C696E653A20006368656360
:100770006B73756D206D69736D617463682C204CAB
:10078000617374204C696E653A20004C696E652077
:100790004E756D626572206973206E6F74204C61B6
:1007A0007374204C696E65204E756D6265722B31D5
:1007B0002C204C617374204C696E653A20004D31D9
:1007C00031300020496E76616C69642065787472FE
:1007D00075646572200000008743000052430000EA
:1007E0005243000000000000000000000000204212
:1007F000403A0020403A00202F0020423A00202FAB
:100800000020543A00205A3A0020423A0020436F18
:10081000756E7420413A200020453A00205A3A0073
:1008200020593A00583A00526573656E643A2000C8
:100830006F6B00627573793A20706175736564201F
:10084000666F7220696E7075740A00627573793A0A
:100850002070617573656420666F722075736572B0
:100860000A00627573793A2070726F6365737369F9
:100870006E670A004B494C4C45442E20005072696B
:100880006E7465722068616C7465642E206B696C8F
:100890006C28292063616C6C6564210A002020505B
:1008A0006C616E6E657242756666657242797465DA
:1008B000733A20002046726565204D656D6F727930
:1008C0003A2000436F6D70696C65643A204F637421
:1008D00020313320323031370A00207C20417574BA
:1008E000686F723A20286E6F6E652C2064656661B1
:1008F000756C7420636F6E666967290A0032303147
:10090000362D31322D30362031323A303000204C05
:1009100061737420557064617465643A2000312EEF
:10092000312E302D5243380A004D61726C696E00D1
:1009300020536F6674776172652052657365740A1F
:1009400000205761746368646F6720526573657433
:100950000A002042726F776E206F757420526573A3
:1009600065740A002045787465726E616C2052656A
:100970007365740A00506F77657255700A0073745E
:100980006172740A006265640A002C2073797374C2
:10099000656D2073746F70706564212048656174A3
:1009A00065725F49443A200070012C0190012701D3
:1009B000B0012201C0011D01F00118011002130154
:1009C00030020E016002090190020401C002FF0022
:1009D0000003FA004003F5008003F000D003EB00B1
:1009E0002004E6007004E100E004DC004005D700CC
:1009F000C005D2004006CD00D006C8008007C30065
:100A00003008BE00F008B900C009B400B00AAF0059
:100A1000B00BAA00D00CA500000EA000500F9B0048
:100A2000C01096005012910000148C00C015870071
:100A3000B0178200B0197D00D01B7800001E730033
:100A400040206E0090226900F024640040275F007F
:100A500090295A00E02B5500102E500020304B00FA
:100A600010324600E033410090353C00103737002B
:100A700070383200A0392D00B03A2800A03B230086
:100A8000603C1E00103D1900903D1400103E0F0008
:100A9000703E0A00C03E0500003F00004B494C4C30
:100AA00045442E2000202D20496E76616C6964201B
:100AB0006578747275646572206E756D62657220FA
:100AC000210A00544845524D414C2052554E415741
:100AD000415900546865726D616C2052756E617782
:100AE0006179004572723A204D415854454D50206D
:100AF000424544004572723A204D415854454D508C
:100B0000004D415854454D502074726967676572B5
:100B10006564004572723A204D494E54454D50204F
:100B2000424544004572723A204D494E54454D505D
:100B3000004D494E54454D50207472696767657287
:100B400065640048656174696E67206661696C65FB
:100B5000640048656174696E67206661696C6564EC
:100B60000048656174696E67206661696C65640040
:100B700048656174696E67206661696C6564000030
:100B8000002100240027002A002D0030003300013E
:100B9000010000040107010A0100002200250028CD
:100BA000002B002E00310034000201000005010876
:100BB000010B01000020002300260029002C002F3B
:100BC00000320000010000030106010901050505CE
:100BD00005070508080808020202020A0A080804B4
:100BE00004040401010101010101010303030303E2
:100BF000030303040707070C0C0C0C0C0C0C0C0271
:100C000002020206060606060606060B0B0B0B0B77
:100C10000B0B0B0102102020080810204010204070
:100C200080020102010804020101020408102040B0
:100C300080804020100804020180040201804020CE
:100C400010080402010804020101020408102040F7
:100C500080010204081020408000000A0B02090CE9
:100C60000D0E080703040100000000000000000052
:100C70000000000000000000000000000000000074
:100C80000000000000121110000000000000000031
:100C90000000000000000000000000000000002430
:100CA000F4D43050C38E20C2A24017828B70111230
:100CB0007A910D816CD90AA861E108C7586607616D
:100CC0005143061E4B5D05C145A7041A4111040995
:100CD0003D9803713931034036DB0265339102D40C
:100CE000305402802E1D02632CEE01752AC501B01E
:100CF00028A001102781018F2564012B244B01E0DE
:100D0000223401AC211F018D200D01801FFC0084C5
:100D10001EED00971DDF00B81CD200E61BC60020A8
:100D20001BBC00641AB200B219A8000A19A0006A1C
:100D3000189900D117910040178B00B51684003127
:100D4000167E00B31579003A157300C7146F00586A
:100D5000146A00EE1366008813630025135E00C753
:100D6000125B006C12570015125400C11151007033
:100D7000114F0021114B00D61049008D104700463D
:100D800010440002104200C00F4000800F3E00429D
:100D90000F3C00060F3B00CB0E3800930E37005C73
:100DA0000E3500270E3400F30D3200C10D310090D6
:100DB0000D3000600D2E00320D2D00050D2C00D9D8
:100DC0000C2B00AE0C2900850C29005C0C2700358B
:100DD0000C27000E0C2600E80B2400C40B2400A0F6
:100DE0000B23007D0B23005A0B2100390B21001827
:100DF0000B2000F80A1F00D90A1E00BB0A1E009D26
:100E00000A1D00800A1D00630A1C00470A1B002CF3
:100E10000A1B00110A1A00F7091A00DD091900C49B
:100E2000091900AB091900920917007B0918006322
:100E30000917004C09160036091600200916000A89
:100E4000091500F5081500E0081400CC081400B8D6
:100E5000081400A4081400900813007D0812006B09
:100E60000813005808120046081200340811002325
:100E70000811001208110001081100F0071000E02D
:100E8000071000D0071000C0071000B0070F00A126
:100E900007100091070E0083070F0074070F00650D
:100EA000070E0057070E0049070E003B070D002EE6
:100EB000070E0020070D0013070D0006070D00F9AF
:100EC000060C00ED060D00E0060C00D4060C00C870
:100ED000060C00BC060C00B0060C00A4060B009922
:100EE000060C008D060B0082060B0077060B006CCB
:100EF000060B0061060A0057060B004C060A00426A
:100F0000060A0038060A002E060A0024060A001AFD
:100F1000060A001006090007060A00FD050900F48C
:100F2000050900EB050900E2050900D9050900D013
:100F3000050900C7050900BE050900B5050800AD93
:100F4000050800A50509009C050800940508008C0B
:100F5000050800840508007C050800740508006C7D
:100F6000050700650508005D050700560508004EE9
:100F70000507004705070040050800380507003150
:100F80000507002A050700230507001C05060016B3
:100F90000507000F0507000805060002050700FB0E
:100FA000040600F5040700EE040600E8040600E26B
:100FB000040700DB040600D5040600CF040600C9C0
:100FC000040600C3040600BD040600B7040600B111
:100FD000040500AC040600A6040600A00405009B5E
:100FE00004060095040500900406008A04050085A7
:100FF000040500800406007A0405007504050070ED
:101000000405006B04050066040500610405005C2E
:1010100004050057040500520405004D040500486E
:10102000040500430405003E0404003A04050035AD
:10103000040500300404002C0405002704040023E8
:101040000405001E0404001A04040016040500111F
:101050000404000D04040009040500040404000055
:10106000040400FC030400F8030400F4030400F08B
:10107000030400EC030400E8030400E4030400E0BC
:10108000030400DC030400D8030400D4030400D0EC
:10109000030400CC030400C8030300C503030024B9
:1010A000F404D9201BC40C5C0E9804C4095F0265CB
:1010B000077101F405F900FB04B30048048700C17F
:1010C0000369005803550003034500BE023A00843B
:1010D00002310053022A002902250004022000E404
:1010E000011C00C8011900AF011700980114008409
:1010F000011300710110006101100051010E004345
:10110000010D0036010B002B010B0020010B001517
:101110000109000C01090003010800FB000800F3AD
:10112000000800EB000700E4000600DE000600D81F
:10113000000600D2000600CC000500C7000500C272
:10114000000500BD000400B9000400B5000400B1B2
:10115000000400AD000400A9000400A5000300A2E3
:101160000003009F0004009B00030098000300950B
:1011700000020093000300900003008D0002008B2A
:101180000003008800020086000200840003008142
:101190000002007F0002007D0002007B0002007957
:1011A0000002007700010076000200740002007265
:1011B000000100710002006F0002006D0001006C70
:1011C0000002006A00010069000200670001006679
:1011D000000100650001006400020062000100617E
:1011E000000100600001005F0002005D0001005C82
:1011F0000001005B0001005A000100590001005885
:101200000001005700010056000100550001005484
:101210000001005300000053000100520001005182
:10122000000100500001004F0001004E0000004E80
:101230000001004D0001004C0001004B0000004B7C
:101240000001004A00010049000100480000004878
:101250000001004700010046000000460001004573
:10126000000000450001004400010043000000436D
:101270000001004200000042000100410000004166
:10128000000100400001003F0000003F0001003E5F
:101290000000003E0001003D0000003D0001003C58
:1012A0000000003C0000003C0001003B0000003B4F
:1012B0000001003A0000003A000100390000003946
:1012C000000100380000003800000038000100373D
:1012D0000000003700010036000000360000003634
:1012E0000001003500000035000000350001003429
:1012F000000000340000003400010033000000331F
:101300000000003300010032000000320000003213
:101310000001003100000031000000310001003008
:1013200000000030000000300001002F0000002FFE
:101330000000002F0000002F0001002E0000002EF2
:101340000000002E0001002D0000002D0000002DE7
:101350000000002D0001002C0000002C0000002CDB
:101360000000002C0001002B0000002B0000002BCF
:101370000000002B0001002A0000002A0000002AC3
:101380000000002A000100290000002900000029B7
:1013900000000029000000290001002800000028AA
:1013A000000000280000002800000028000100279D
:1013B0000000002700000027000000270000002791
:1013C0000001002600000026000000260000002684
:1013D0000000002600010025000000250000002577
:1013E0000000002500000025000000250001002469
:1013F000000000240000002400000024000000245D
:10140000000100230000002300000023000000234F
:101410000000002300000023000000230001002240
:101420000000002200000022000000220000002234
:101430000000002200010021000000210000002126
:101440000000002100000021000000210000002118
:10145000000100200000002000000020000000200B
:1014600000000020000000200000002000000020FC
:101470000001001F0000001F0000001F0000001FEF
:101480000000001F0000001F0000001F0001001EE0
:101490000000001E0000001E0000001E00000020D2
:1014A000746F6F206C6F6E672065787472757369E6
:1014B0006F6E2070726576656E7465640A002063D5
:1014C0006F6C6420657874727573696F6E207072CA
:1014D0006576656E7465640A0048617264636F6462
:1014E00065642044656661756C7420536574746925
:1014F0006E6773204C6F616465640A0020204D3272
:1015000030302044300A0020204D3230302044005A
:101510002044697361626C65640A0046696C616DA0
:10152000656E742073657474696E67733A00204445
:101530000020490020204D333031205000504944D4
:101540002073657474696E67733A0A00205A00202C
:10155000590020204D323036205800486F6D6520EC
:101560006F666673657420286D6D290A002045003A
:10157000205A00205900205800204200205400200A
:10158000204D323035205300416476616E636564CE
:10159000207661726961626C65733A20533D4D69D2
:1015A0006E20666565647261746520286D6D2F73A9
:1015B000292C20543D4D696E2074726176656C2033
:1015C000666565647261746520286D6D2F73292CC2
:1015D00020423D6D696E696D756D207365676D653F
:1015E0006E742074696D6520286D73292C20583D18
:1015F0006D6178696D756D205859206A65726B2030
:10160000286D6D2F73292C20205A3D6D6178696DEE
:10161000756D205A206A65726B20286D6D2F7329B5
:101620002C2020453D6D6178696D756D2045206ADF
:1016300065726B20286D6D2F73290A0020540020DD
:10164000520020204D323034205000416363656CDD
:1016500065726174696F6E733A20503D7072696E85
:1016600074696E672C20523D7265747261637420D8
:10167000616E6420543D74726176656C0A00204589
:1016800000205A0020590020204D323031205800CF
:101690004D6178696D756D20416363656C6572613C
:1016A00074696F6E20286D6D2F7332293A0A0020FD
:1016B0004500205A0020590020204D323033205858
:1016C000004D6178696D756D206665656472617441
:1016D000657320286D6D2F73293A0A00204500207C
:1016E0005A0020590020204D39322058005374658B
:1016F00070732070657220756E69743A0A005761C4
:10170000726E696E673A20486F6D696E6720427528
:101710006D702044697669736F72203C20310A0035
:101720000000A0400000A0400000004000008743EF
:101730000000524300005243FFFFFF4572726F7278
:101740002077726974696E6720746F204545505226
:101750004F4D210A00206279746573290A00536590
:101760007474696E67732053746F72656420280007
:10177000454550524F4D20636865636B73756D200E
:101780006D69736D617463680A00206279746573B2
:10179000290A002073746F7265642073657474691C
:1017A0006E677320726574726965766564202800BF
:1017B0001000C90210012C01400122017001180122
:1017C000B0010E01F00104015002FA00B002F00075
:1017D0003003E600D003DC009004D2007005C8009E
:1017E000A006BE000008B400B009AA00D00BA000FB
:1017F000600E960060118C000015820020197800A0
:10180000C01D6E00A0226400B0275A00902C50002A
:1018100000314600E0343C0010383200903A280095
:10182000603C1E00A03D1400803E0A00203F0000E6
:101830004E414E494E495459494E46CDCCCC3D0AB5
:10184000D7233C17B7D13877CC2B329595E6241F98
:10185000B14F0A000020410000C84200401C462051
:10186000BCBE4CCA1B0E5AAEC59D7400AE66112498
:101870001FBECFEFD1E2DEBFCDBF00E00CBF13E053
:10188000A0E0B2E0EEECF5EE00E00BBF02C0079086
:101890000D92A838B107D9F72CE0A8E8B3E001C051
:1018A0001D92A43DB207E1F71CE0C7E3DCE000E0D5
:1018B00006C021970109802FFE010E944067C633B0
:1018C000D10780E00807A9F70E94314B0C94E5721C
:1018D0000C94000082E08093480C08958FB7F89430
:1018E00090910C0720910B07291759F0E92FF0E090
:1018F000E557F94F208130E09F5F9F7790930C0769
:1019000002C02FEF3FEF8FBFC90108950F931F93C0
:10191000CF93DF93FC0120812B3301F1109110064E
:101920001430E0F4062FBC0190911906C92FD0E0C5
:10193000F0E69F9FC00111248E589B4F0E944F6A72
:10194000FE01EF5EF84F00832196C370DD27C09340
:1019500019061F5F1093100681E001C080E0DF913F
:10196000CF911F910F91089580E1ECE8F3E0A4E599
:10197000B4E001900D928A95E1F70895CF92EF922D
:10198000FF920F931F93C09067047B018C0128E99D
:1019900033E044E953E060E973E08CE893E00E94AF
:1019A0005C301F910F91FF90EF90CF900895CF92F0
:1019B000EF92FF920F931F93E0900002F0900102CC
:1019C0000091020210910302C090670420E634E007
:1019D0004CE554E068E574E084E594E00E945C30F6
:1019E0001F910F91FF90EF90CF900895682F880F6F
:1019F000770B80916F04909170040E943B6A9C0168
:101A000090930F0480930E0481E0232B09F480E06F
:101A1000089580910E0490910F044AE050E060E038
:101A200070E001960E94CA6B97FD1EC080910E0463
:101A300090910F044AE050E060E070E001960E944F
:101A4000CA6B6F3F71058105910509F07CF48091A7
:101A50000E0490910F044AE050E060E070E00196BF
:101A60000E94CA6B862F089580E008958FEF089535
:101A7000E0910E04F0910F04818121E030E080328A
:101A800039F42F5F3F4FDF01A20FB31F8C91F7CFC7
:101A90008D3211F08B3231F42F5F3F4FDF01A20FF7
:101AA000B31F8C918E3219F4E20FF31F81818053A2
:101AB0008A3030F4AEDF91E0811103C090E001C0C4
:101AC00091E0892F089580910E0490910F044AE0CF
:101AD00050E060E070E001960E94F26CCB01089546
:101AE00080910E0490910F044AE050E060E070E0B5
:101AF00001960E94CA6BCB0108950F931F93CF9359
:101B0000DF93C0910E04D0910F0465E470E0CE0124
:101B10000E943B6A8C01CE0101960115110571F0FE
:101B2000F801108260E070E00E94646A25E4F80128
:101B30002083DF91CF911F910F91089560E070E0B5
:101B4000DF91CF911F910F910C94646ABF92CF9255
:101B5000DF92EF92FF920F931F93CF93DF938CE866
:101B6000E82E83E0F82E04E514E098E6C92E94E010
:101B7000D92EC6E6D2E0BC2E84E0B80E899136DFBD
:101B80008823D1F0BADFF6012081211104C0209111
:101B90006C04222331F0F80120813181428153818C
:101BA00003C020E030E0A9010E945067F701608384
:101BB0007183828393830AC0F80180819181A2811D
:101BC000B381F70180839183A283B383F4E0EF0EA6
:101BD000F11C0C5F1F4F8FEFC81AD80ABC12CECF72
:101BE00086E404DF882341F088DF20E030E0A901AB
:101BF0000E94986918167CF18091710483FD3BC0A6
:101C0000609198037091990380919A0390919B033E
:101C1000209160043091610440916204509163040A
:101C2000E091CD0CEE2339F10E944F679B01AC018E
:101C30006091BF0C7091C00C8091C10C9091C20C4E
:101C40000E9450676093BF0C7093C00C8093C10CCE
:101C50009093C20C10C051DF20E030E040E752E426
:101C60000E943C686093000270930102809302021C
:101C700090930302C1CFDF91CF911F910F91FF90FD
:101C8000EF90DF90CF90BF90089520E634E04CE5D0
:101C900054E068E574E084E594E00C94652F88E8EE
:101CA00093E190934A0C8093490C80916F008D7F53
:101CB00080936F009091A30C8091A40C981719F059
:101CC0000E94E827F7CF1092500710924F0780919B
:101CD0006F00826080936F000E94A42780E090E0F4
:101CE0000E943C2760937F06709380068093810654
:101CF0009093820681E090E00E943C2760938306E7
:101D000070938406809385069093860682E090E027
:101D10000E943C276093870670938806809389060B
:101D200090938A068CE0EFE7F6E0A4E5B4E001903A
:101D30000D928A95E1F7A9CFAF92BF92CF92DF9231
:101D4000EF92FF920F931F93CF93DF9300D01F92D8
:101D5000CDB7DEB779015C01AA0CBB1CAA0CBB1C79
:101D6000C5018C5A9B4F6C01FC01108211821282BA
:101D7000138249835A836B837C8387DF49815A812D
:101D80006B817C81F6014083518362837383C090B1
:101D9000670420E030E0A901B801C7010E949E6EEF
:101DA000811108C0F501E051FD4F30812181928100
:101DB000838104C0302F212F9E2D8F2DE32EF22EF4
:101DC000092F182F20E634E04CE554E068E574E074
:101DD00084E594E00E945C300E94A42710920E06D5
:101DE0000F900F900F900F90DF91CF911F910F9157
:101DF000FF90EF90DF90CF90BF90AF900895FC01DF
:101E000065917591859194910895CF92DF92EF92AB
:101E1000FF920F931F93CF93DF93EC01CC0FDD1F45
:101E2000CC0FDD1FFE01E45CFB4F20E030E0A90198
:101E300060817181828193810E945067FE01E05D23
:101E4000FB4F20813181428153810E9450676B0199
:101E50007C01CE018E51984FD2DF8E01085B1B4F63
:101E6000A70196010E945067F80160837183828305
:101E70009383CE018A52984FC2DFC85DDD4FA70120
:101E800096010E945067688379838A839B83DF91E0
:101E9000CF911F910F91FF90EF90DF90CF90089519
:101EA0001F920F920FB60F9211248F9382E08093AE
:101EB000480C8F910F900FBE0F901F9018951F9296
:101EC0000F920FB60F9211248F9382E08093480CEB
:101ED0008F910F900FBE0F901F9018951F920F9229
:101EE0000FB60F9211248F9382E08093480C8F914C
:101EF0000F900FBE0F901F9018954F925F926F92A8
:101F00007F92AF92BF92CF92DF92EF92FF92CF93E8
:101F1000DF93EB01FC0160817181828193812CE36D
:101F2000C22ED12CE12CF12CA70196010E94AA729D
:101F3000B62EA72ECA01B901A70196010E94AA7266
:101F40006B017C01CA01B90128E130E040E050E0BA
:101F50000E94AA722B013C01C9016DE671E00E944A
:101F60000F6761157105D9F0AF92BF92DF92CF92E2
:101F70005F924F929F938F937F936F9387E796E043
:101F80009F938F93DF93CF930E946F6E8DB79EB711
:101F90000E960FB6F8949EBF0FBE8DBF61C000971E
:101FA000C9F0AF92BF92DF92CF925F924F929F9310
:101FB0008F9387E696E09F938F93DF93CF930E9452
:101FC0006F6EEDB7FEB73C960FB6F894FEBF0FBE2E
:101FD000EDBF46C04114510461047104B9F0AF92E1
:101FE000BF92DF92CF925F924F928BE596E09F93E4
:101FF0008F93DF93CF930E946F6E8DB79EB70A9633
:102000000FB6F8949EBF0FBE8DBF2AC0C114D10475
:10201000E104F104A9F0AF92BF92DF92CF9283E581
:1020200096E09F938F93DF93CF930E946F6EEDB7EF
:10203000FEB738960FB6F894FEBF0FBEEDBF10C0C6
:10204000AF92BF928FE496E09F938F93DF93CF93ED
:102050000E946F6E0F900F900F900F900F900F9047
:10206000DF91CF91FF90EF90DF90CF90BF90AF9036
:102070007F906F905F904F9008950E941D1E609317
:1020800088037093890380938A0390938B03089548
:102090009091C00095FFFCCF8093C60008950F93E8
:1020A0001F93CF93DF931F921F92CDB7DEB7FC0132
:1020B00084918F010F5F1F4F811102C08B0107C0F8
:1020C00069837A83E5DFF80169817A81F1CFF801CC
:1020D00081918F01882311F0DBDFF9CF0F900F90F2
:1020E000DF91CF911F910F9108958F929F92AF92A0
:1020F000BF92EF92FF921F93CF93DF93CDB7DEB7DE
:10210000A0970FB6F894DEBF0FBECDBF6115710565
:102110008105910579F110E0842E912CA12CB12C30
:10212000EE24E394F12CEC0EFD1EE10EF11C17FDE4
:10213000FA94A50194010E94AA72F7016083B90183
:10214000CA011F5F611571058105910549F711509D
:1021500010F1E1E0F0E0EC0FFD1FE10FF11D17FDC4
:10216000FA9580818A3010F097E301C090E3890FDF
:102170008FDFEDCF80E3A0960FB6F894DEBF0FBEE1
:10218000CDBFDF91CF911F91FF90EF90BF90AF90A7
:102190009F908F907DCFA0960FB6F894DEBF0FBEB4
:1021A000CDBFDF91CF911F91FF90EF90BF90AF9087
:1021B0009F908F900895CF92DF92EF92FF92CF93EE
:1021C000DF936A017B01FC018491EF012196882352
:1021D00019F05EDFFE01F8CF4AE0C701B601DF91DA
:1021E000CF91FF90EF90DF90CF907FCFCF92DF9293
:1021F000EF92FF926B017C0197FF0AC08DE248DFEE
:10220000F094E094D094C094C11CD11CE11CF11C4A
:102210004AE0C701B601FF90EF90DF90CF9065CF05
:10222000CF93DF938FB7F89490910C0790930B079F
:102230008FBFE7E2F8E08491EF012196882319F03F
:1022400027DFFE01F8CF80910D0790910E07A09136
:102250000F07B0911007BC01CD016F5F7F4F8F4F0B
:102260009F4FC4DF8AE014DFDF91CF910C94F01B05
:10227000EF92FF920F931F93CF93DF931F92CDB7EF
:10228000DEB7082F162FE6EFF5E084917F012FEFE0
:10229000E21AF20A882329F09983FADEF70199817C
:1022A000F4CFE02FF92F84917F019FEFE91AF90A0B
:1022B000882319F0EDDEF701F6CF60910D077091DC
:1022C0000E0780910F079091100790DF8AE0E0DE03
:1022D0001111A6DF10927D0610927C060F90DF91FF
:1022E000CF911F910F91FF90EF9008954F925F92C1
:1022F0006F927F92BF92CF92DF92EF92FF920F93F5
:102300001F93CF93DF93CDB7DEB76E970FB6F894D8
:10231000DEBF0FBECDBF60911A0670911B0661151E
:10232000710561F14DE150E08E010F5F1F4FC80153
:102330000E94466E1E8EF8017F01E01AF10AB190EC
:10234000BB2099F12AE0B212F7CF2FC0B8018BE879
:1023500096E0A5DE82E29CDE8AE09ADEBB2009F4EC
:102360003AC0EFEFEE1AFE0A80911A0690911B0612
:10237000E80EF91EF0921B06E0921A0680911A06EA
:1023800090911B06892B09F047C18091100684307B
:1023900008F042C12FB7F89480910B0790910C0779
:1023A0002FBF891B8F77E1F437C1F801EE0DFF1DB8
:1023B000108260E0C801AADA882301F3E9E4F6E0BC
:1023C00084916F019FEFC91AD90A882309F4BECFFF
:1023D0005FDEF601F5CF10921B0610921A06CECFE3
:1023E0007DDA20917C0630917D068A3019F08D309F
:1023F00009F0E2C010927E062115310509F4C5CF1F
:10240000F901E45EF94F108210927D0610927C066D
:102410002CE136E07901F90180812F5F3F4F803256
:10242000C9F387018E3411F0E12CF12C6AE270E0DF
:10243000C8010E943B6A6C01E114F10409F474C004
:102440006EEB77E0C8010E94556EBB24B394892BD4
:1024500011F4B12C09C06EE470E0C80104960E942A
:102460003B6A009709F07C014AE050E060E070E0D0
:10247000C70101960E94CA6B6093AD037093AE03CF
:102480008093AF039093B00340900D0750900E07D8
:1024900060900F0770901007FFEF4F1A5F0A6F0AE6
:1024A0007F0A641575058605970531F0B11004C0E3
:1024B00061E08BE897E03DC0C114D10401F180E0F8
:1024C000F12CF801E80FF11D90819A3219F08F5F1D
:1024D000F926F7CF4AE050E060E070E0C6010196CF
:1024E0000E94CA6BCF2CD12CE12CF12C6C157D05F0
:1024F0008E059F0541F061E08CE697E01AC061E02F
:1025000082E497E016C08091AD039091AE03A09154
:10251000AF03B091B00380930D0790930E07A09383
:102520000F07B093100707C0892B29F060E088E9F6
:1025300096E09EDE71C08091340281111DC067E477
:1025400070E0C8010E943B6A0097B1F04AE050E099
:1025500060E070E001960E94CA6B6430710560F41F
:10256000EBECF6E084917F012FEFE21AF20A882368
:1025700019F08EDDF701F6CF64E673E0C8010E9422
:10258000466A892B11F41092350269E673E0C8019E
:102590000E94466A892B19F482EC96E016D56EE605
:1025A00073E0C8010E94466A892B09F478DB61E078
:1025B0008CE196E0ABD9E9CE2F3531050CF0E5CEB4
:1025C0008C35A9F42FB7F89480910B0790910C07E4
:1025D0002FBF891B8F7709F4D8CE80D990917E06C2
:1025E0009111D3CE20917C0630917D0609C08B33AA
:1025F00019F491E090937E0690917E069111C5CEDC
:10260000A9014F5F5F4F50937D0640937C06F9010F
:10261000E45EF94F8083B9CE6E960FB6F894DEBFB4
:102620000FBECDBFDF91CF911F910F91FF90EF9023
:10263000DF90CF90BF907F906F905F904F90089504
:102640000F931F93CF93DF938B01FC018491EF01D4
:102650002196882319F01CDDFE01F8CFB801110F77
:10266000880B990BDF91CF911F910F91BFCDEF9206
:10267000FF921F93CF93DF937C0184E5B7D9182F86
:10268000882311F1C6D98823D1F0E9E4F6E08491DA
:10269000EF012196882319F0FBDCFE01F8CF8DE4D1
:1026A000F7DCB701FF0C880B990BA0DDB2D9682FBE
:1026B00070E083EC97E0C4DF8AE0EADC09C0A9D9C6
:1026C00080932F0410E004C08091670480932F044E
:1026D000812FDF91CF911F91FF90EF9008958F92FE
:1026E0009F92AF92BF92CF92DF92EF92FF92CF93E1
:1026F0006B017C01B42E20E030E0A9010E949E6EA7
:1027000087FF06C08DE2C4DCF7FAF094F7F8F09486
:10271000C0E060E070E080E09FE3CB1541F02DEC7D
:102720003CEC4CEC5DE30E94036FCF5FF6CF9B0166
:10273000AC01C701B6010E9450676B017C010E9489
:10274000B3684B015C014AE0D0DCCC2379F1C501D0
:10275000B4010E94A26E9B01AC01C701B6010E94A8
:102760004F676B017C018EE293DC20E030E040E2B9
:1027700051E4C701B6010E94036F4B015C010E9446
:10278000AD686B01770FEE08FF08C701B6012EDDBB
:10279000C701B6010E94A46E9B01AC01C501B40142
:1027A0000E944F676B017C01C150F9F6CF91FF90F9
:1027B000EF90DF90CF90BF90AF909F908F90089553
:1027C0004F925F926F927F928F929F92AF92BF9241
:1027D000CF92DF92EF92FF92CF93DF93E4E2F8E0A3
:1027E0008491EF012196882319F052DCFE01F8CF85
:1027F000609154047091550480915604909157044F
:1028000042E06DDFE0E2F8E08491EF012196882359
:1028100019F03EDCFE01F8CF609158047091590424
:1028200080915A0490915B0442E059DFECE1F8E0BA
:102830008491EF012196882319F02ADCFE01F8CF5C
:1028400060915C0470915D0480915E0490915F04DE
:1028500042E045DFE8E1F8E08491EF01219688232A
:1028600019F016DCFE01F8CF6091600470916104EC
:10287000809162049091630442E031DF8FB7F89455
:1028800040909C0350909D0360909E0370909F0326
:102890008090A0039090A103A090A203B090A30306
:1028A000C090A403D090A503E090A603F090A703E6
:1028B0008FBFEDE0F8E08491EF012196882319F0B5
:1028C000E7DBFE01F8CFC301B20190DCE9E0F8E0FC
:1028D0008491EF012196882319F0DADBFE01F8CF0D
:1028E000C501B40183DCE5E0F8E08491EF012196B5
:1028F000882319F0CDDBFE01F8CFC701B60176DCE5
:102900008AE0DF91CF91FF90EF90DF90CF90BF9062
:10291000AF909F908F907F906F905F904F90B8CBCB
:10292000CF93DF93E1E0F8E08491EF0121968823D3
:1029300019F0AEDBFE01F8CF60917B0C70917C0C3E
:1029400080917D0C90917E0C41E0C9DEEEEFF7E0C6
:102950008491EF012196882319F09ADBFE01F8CFCC
:102960006091790C70917A0C072E000C880B990BF2
:102970000E94A46E41E0B3DEEAEFF7E08491EF013C
:102980002196882319F084DBFE01F8CF6091B10312
:102990007091B2038091B3039091B40341E09FDE44
:1029A000E7EFF7E08491EF012196882319F070DBBF
:1029B000FE01F8CF6091B5037091B603072E000CAD
:1029C000880B990B0E94A46E41E089DEE3EFF7E0EB
:1029D0008491EF012196882319F05ADBFE01F8CF8C
:1029E000E0912F04F0E0E25DFB4F608170E080E059
:1029F00090E0FCDBEEEEF7E08491EF012196882376
:102A000019F046DBFE01F8CF6091550770E080E0D9
:102A100090E0DF91CF91EACBCF92DF92EF92FF92DD
:102A2000CF93DF936A017B01FC018491EF01219632
:102A3000882319F02DDBFE01F8CF42E0C701B60173
:102A4000DF91CF91FF90EF90DF90CF9048CECF9263
:102A5000DF92EF92FF92CF93DF936A017B01FC013B
:102A60008491EF012196882319F012DBFE01F8CF43
:102A700042E0C701B601DF91CF91FF90EF90DF9068
:102A8000CF902DCE1F920F920FB60F9211240BB63E
:102A90000F922F933F938F939F93EF93FF932091E8
:102AA000C6009FB7F894E0910B0781E08E0F8F77F7
:102AB00030910C07831731F0F0E0E557F94F208390
:102AC00080930B079FBFFF91EF919F918F913F9153
:102AD0002F910F900BBE0F900FBE0F901F90189567
:102AE000EF92FF920F931F93CF93DF931F921F924A
:102AF000CDB7DEB782E08093C0001092C50087E0BA
:102B00008093C4008091C10080618093C100809156
:102B1000C10088608093C1008091C100806880936B
:102B2000C100EEE7F9E084918F010F5F1F4F88230A
:102B300019F0AEDAF801F7CFE9E4F6E084918F01FD
:102B40000F5F1F4F882319F0A3DAF801F7CF14B7EE
:102B500010FF0CC0E5E7F9E084917F019FEFE91ACF
:102B6000F90A882319F094DAF701F6CF11FF0CC0A7
:102B7000E4E6F9E084917F019FEFE91AF90A8823DE
:102B800019F086DAF701F6CF12FF0CC0E2E5F9E0A2
:102B900084917F019FEFE91AF90A882319F078DA06
:102BA000F701F6CF13FF0CC0E1E4F9E084917F0157
:102BB0009FEFE91AF90A882319F06ADAF701F6CFCC
:102BC00015FF0BC0E0E3F9E084918F010F5F1F4F09
:102BD000882319F05DDAF801F7CF14BEE9E2F9E0D5
:102BE00084918F010F5F1F4F882319F051DAF8018C
:102BF000F7CF80E24DDAEEE1F9E084918F010F5FCB
:102C00001F4F882319F044DAF801F7CF8AE040DA41
:102C1000E9E4F6E084918F010F5F1F4F882319F0DC
:102C200037DAF801F7CFEEE0F9E084918F010F5F1A
:102C30001F4F882319F02CDAF801F7CFEDEFF8E0F9
:102C400084918F010F5F1F4F882319F021DAF8015B
:102C5000F7CFEAEDF8E084918F010F5F1F4F8823D3
:102C600019F016DAF801F7CFE3ECF8E084918F0160
:102C70000F5F1F4F882319F00BDAF801F7CFE9E453
:102C8000F6E084918F010F5F1F4F882319F000DA5F
:102C9000F801F7CF2091CE0C3091CF0CCE010196E8
:102CA0002115310519F4845D9C4002C0821B930BF1
:102CB0009A83898369817A8184EB98E0C1DC60E939
:102CC00074E08DE998E0BCDC8AE0E2D981E0809391
:102CD00011078093120780931307809314070E94B3
:102CE000A9468CE0ECE3F4E0A4E5B4E001900D9299
:102CF0008A95E1F70E94450E249A80910101806235
:102D0000809301018091010180648093010187ED2E
:102D100080937A0010927E0010927D0080917D0059
:102D2000806280937D0080917D00806480937D002F
:102D300080E888BD80916E00846080936E006AEFA9
:102D400070E080E090E041D785E090E090935707F5
:102D50008093560780913802909139020E94B849B9
:102D600020E030E040EA50E40E949E6E87FF0AC0F7
:102D70008091380290913902409790933902809364
:102D80003802E8CF8AEF90E090933E0280933D02B4
:102D900080915307909154070E94B84920E030E099
:102DA0004AE753E40E949869181654F48091530737
:102DB0009091540740969093540780935307E8CF1F
:102DC00080913602909137020E944B2320E030E040
:102DD00040EA50E40E949E6E87FF0AC0809136024E
:102DE0009091370240979093370280933602E8CF54
:102DF00080915107909152070E944B2320E030E0D0
:102E000046E153E40E949869181654F480915107E2
:102E10009091520740969093520780935107E8CFC4
:102E200098E288E10FB6F894A895809360000FBEF1
:102E300090936000819A879A80910A0182608093C2
:102E40000A010E9A3B9A579A5F9A829A8A9A8091BF
:102E500007018160809307019FB7F8948091080172
:102E60008160809308019FBF0A9A129A3F9A479AFD
:102E70006D98759A809104018D7F809304019FB7AE
:102E8000F894809105018260809305019FBF53985B
:102E90005B9A809A88985F9A1092B903869A8E9866
:102EA0008A9A1092BA0380910A01886080930A017D
:102EB0009FB7F89480910B01877F80930B019FBF90
:102EC0009FB7F894809108018160809308019FBFAB
:102ED0001092BB030C9A1498129A399A41988091D7
:102EE00081008F7E80938100809181008860809333
:102EF0008100809180008D7F809380008091800090
:102F00008E7F80938000809180008F7380938000FB
:102F1000809180008F7C8093800080918100887FE9
:102F200082608093810080E090E490938900809398
:102F30008800109285001092840080916F0082605A
:102F400080936F0081E080930E0278940E94AE27F8
:102F50002AE63CE0309342022093410280916A00CD
:102F6000837F846080936A00ED9A80916C00846016
:102F700080936C00D99A8091680082608093680089
:102F800030934A0220934902809169008F738064D4
:102F900080936900EB9A0F900F90DF91CF911F9172
:102FA0000F91FF90EF9008955F9AE9EBF3E01082A4
:102FB0008A9A11829FB7F894A8E0B1E08C91816061
:102FC0008C939FBF1282129A0895E6EFF5E08491E8
:102FD000EF012196882319F05BD8FE01F8CFEDE7C9
:102FE000F8E08491EF012196882319F051D8FE0171
:102FF000F8CF64EF71E080E090E0E7D5F8940E94AC
:103000001A20D2DFA895FECF4F925F926F927F92E7
:103010008F929F92AF92BF92CF92DF92EF92FF92E8
:103020000F931F93CF93DF9308D66B017C018091A0
:103030000902882309F465C080916D0490916E04A3
:10304000009709F45EC040911507509116076091F2
:1030500017077091180797018601041B150B260BA3
:10306000370B37FD61C08330910509F134F40197C6
:103070000CF447C0E9E4F6E006C0049709F041C04B
:10308000E9E4F6E02AC08491EF012196882321F03B
:103090000E944810FE01F7CFE2E6F8E08491EF01CC
:1030A0002196882371F10E944810FE01F7CFE9E4D0
:1030B000F6E08491EF012196882321F00E944810C8
:1030C000FE01F7CFEBE4F8E08491EF01219688232D
:1030D000C1F00E944810FE01F7CF8491EF012196C4
:1030E000882321F00E944810FE01F7CFE3E3F8E0C7
:1030F0008491EF012196882321F00E944810FE015F
:10310000F7CF2091090230E0A8EEB3E00E94D6721A
:10311000C60ED71EE81EF91EC0921507D0921607DC
:10312000E0921707F092180780911006843008F497
:10313000DDD883D5C090BC03D090BD03E090BE0322
:10314000F090BF03C114D104E104F104B9F000917F
:1031500088031091890320918A0330918B030C0D11
:103160001D1D2E1D3F1D6B017C01C01AD10AE20AF4
:10317000F30AF7FC03C084E798E027DFC0900A0257
:10318000D0900B02E0900C02F0900D02C114D1041B
:10319000E104F104D9F00091880310918903209192
:1031A0008A0330918B030C0D1D1D2E1D3F1DDC016C
:1031B000CB01801B910BA20BB30BB7FD07C0909105
:1031C000A30C8091A40C981709F40AC26091B7036C
:1031D0009091A30C8091A40C981791F0E091A40C0D
:1031E00009E4E09FF0011124E150F84F60818091E3
:1031F000A40C9091A30C891719F08F5F8F70F9CFF1
:1032000070E089E01BD48091AC03882309F4FDC0F1
:103210000091050210910602D0910702C0910802A8
:103220006091790C70917A0C072E000C880B990B29
:103230000E94A46E20E030E040E050E40E9450671D
:1032400098014D2F5C2F0E949E6E87FDDEC0F0908E
:10325000A40C912CA12CB12CE12C89E4882E809116
:10326000A30CF81609F45CC08F2D90E0889EF00145
:10327000899EF00D1124E854F84F428153816481F6
:103280007581452B462B472B81F4468157816085FC
:103290007185452B462B472B41F442855385648528
:1032A0007585452B462B472BB1F1889E9001899E51
:1032B000300D1124C9018854984F6C01FC016685BA
:1032C0007785808991890E94A46E2B013C01F601CB
:1032D00062897389848995890E94A26E9B01AC01E1
:1032E000C301B2010E943C68F60123A134A145A1AB
:1032F00056A10E94036F3B016C019B01AC01692D3B
:103300007A2D8B2D9E2D0E949E6E87FF04C0962CD9
:10331000A72CBC2CED2C81E08F0D8F70F82E9FCF49
:10332000209153023091540240915502509156021F
:10333000692D7A2D8B2D9E2D0E94036F9B01AC0170
:10334000B8018D2F9C2F0E9450676B017C01980162
:103350004D2F5C2F0E949E6E87FD14C000914F027E
:1033600010915002D0915102C091520298014D2FFC
:103370005C2FB601C7010E94986918161CF08601DF
:10338000DE2DCF2DC0901907D0901A07E0901B07B3
:10339000F0901C0798014D2F5C2FC701B6010E94C9
:1033A00098691816E4F420E037ED43EA5CE3B801CD
:1033B0008D2F9C2F0E94036F4B015C0128E431EE9E
:1033C0004AE75FE3C701B6010E94036F9B01AC01AE
:1033D000C501B4010E9450678B01D82FC92FC801C5
:1033E000AD2FBC2F8093190790931A07A0931B074A
:1033F000B0931C07B8018D2F9C2F0E94AD6870936D
:103400007A0C6093790C0E94684980912D04811197
:103410000E940C248091A50C9091A60C019709F0B4
:10342000F1C08091430781110CC007D460933F071E
:1034300070934007809341079093420781E0809307
:1034400043078091370781110CC0F7D3609333078E
:1034500070933407809335079093360781E080930B
:103460003707EBD36B017C0180912B07811114C0CE
:103470004091C50C5091C60C28EE33E0429FC0012C
:10348000439F900D529F900D112490932A07809393
:10349000290781E080932B0780913F079091400797
:1034A000A0914107B0914207B701A601481B590BF3
:1034B0006A0B7B0B8091290790912A07A0E0B0E06E
:1034C000481759076A077B07B0F18090C90C9090A4
:1034D000CA0CA090CB0CB090CC0C85EA9CE00E946A
:1034E000B0266093C90C7093CA0C8093CB0C909358
:1034F000CC0C0091B70C1091B80C2091B90C309104
:10350000BA0C081919092A093B09DC01CB01800F03
:10351000911FA21FB31F8093B70C9093B80CA09378
:10352000B90CB093BA0CC0923F07D0924007E0921A
:103530004107F09242078091210781111AC0409102
:10354000C70C5091C80C28EE33E0429FC001439F46
:10355000900D529F900D1124A0E0B0E080931D07C4
:1035600090931E07A0931F07B093200781E08093DC
:1035700021078091330790913407A0913507B091CE
:103580003607B701A601481B590B6A0B7B0B8091CC
:103590001D0790911E07A0911F07B09120074817A3
:1035A00059076A077B0770F1C0923307D09234073E
:1035B000E0923507F092360785EA9CE0DF91CF91E3
:1035C0001F910F91FF90EF90DF90CF90BF90AF9041
:1035D0009F908F907F906F905F904F900C94A82E4B
:1035E0005F9A1092B9038A9A1092BA039FB7F8941F
:1035F000809108018160809308019FBF1092BB03F6
:10360000129AE4CDDF91CF911F910F91FF90EF902F
:10361000DF90CF90BF90AF909F908F907F906F90F2
:103620005F904F900895CF92DF92EF92FF92C090FB
:103630000F02D0901002E0901102F09012028091DF
:10364000E103882351F120E030E0A901C701B60170
:103650000E949E6E882309F12BED3FE049E450E47F
:10366000C701B6010E94036F20E030E040E05FE355
:103670000E94036FA70196010E94036F20E030E0D3
:1036800040E05FE30E94036F9B01AC0160E070E0EB
:1036900080E89FE30E943C6804C060E070E080E83E
:1036A0009FE360935C0270935D0280935E0290934F
:1036B0005F02FF90EF90DF90CF900895CF92DF925E
:1036C000EF92FF92CF93DF93EC01C0904804D0902B
:1036D0004904E0904A04F0904B04A70196016881E8
:1036E00079818A819B810E949E6E87FF04C0C88277
:1036F000D982EA82FB82C0904C04D0904D04E090C5
:103700004E04F0904F04A70196016C817D818E815B
:103710009F810E949E6E87FF04C0CC82DD82EE8274
:10372000FF82C0905004D0905104E0905204F09079
:103730005304A7019601688579858A859B850E9437
:103740009E6E87FF04C0C886D986EA86FB86C09035
:103750002802D0902902E0902A02F0902B02A701C3
:103760009601688179818A819B810E9498691816E7
:1037700024F4C882D982EA82FB82C0902C02D090C5
:103780002D02E0902E02F0902F02A70196016C818D
:103790007D818E819F810E949869181624F4CC82C5
:1037A000DD82EE82FF82C0903002D0903102E09044
:1037B0003202F0903302A7019601688579858A85E7
:1037C0009B850E949869181624F4C886D986EA86D3
:1037D000FB86DF91CF91FF90EF90DF90CF9008951F
:1037E000CF93DF930E943D10E0910F06F0E0EF5E73
:1037F000F84F8081882381F0E0E3F8E08491EF01C5
:103800002196882321F00E944810FE01F7CF8AE01C
:10381000DF91CF910C944810DF91CF91089590E003
:10382000FC013197E231F10508F04EC08827EE58CF
:10383000FF4F8F4F0C944067809180008F7703C0BB
:10384000809180008F7D809380000895809180001A
:10385000877FF9CF84B58F7702C084B58F7D84BD13
:1038600008958091B0008F7703C08091B0008F7D64
:103870008093B0000895809190008F7707C0809169
:1038800090008F7D03C080919000877F809390008F
:1038900008958091A0008F7707C08091A0008F7D50
:1038A00003C08091A000877F8093A000089580913D
:1038B00020018F7707C0809120018F7D03C0809108
:1038C0002001877F8093200108953FB7F89480916D
:1038D000B0079091B107A091B207B091B30726B598
:1038E000A89B05C02F3F19F00196A11DB11D3FBF38
:1038F000BA2FA92F982F8827820F911DA11DB11DC6
:10390000BC01CD0142E0660F771F881F991F4A95C1
:10391000D1F708950895CF93DF93282F30E0F90170
:10392000E75AF34F8491F901ED5EF34FD491F90119
:10393000E353F44FC491CC2389F0811170DFEC2F55
:10394000F0E0EE0FFF1FED54F44FA591B491EC9110
:10395000ED2381E090E021F480E002C080E090E07F
:10396000DF91CF9108951F93CF93DF93282F30E0FD
:10397000F901E75AF34F8491F901ED5EF34FD491C9
:10398000F901E353F44FC491CC23C1F0162F8111F8
:1039900046DFEC2FF0E0EE0FFF1FE756F44FA59146
:1039A000B4918FB7F894111105C09C91ED2FE0955B
:1039B000E92302C0EC91ED2BEC938FBFDF91CF9107
:1039C0001F910895CF93DF9390E0FC01ED5EF34FDC
:1039D0002491FC01E353F44F8491882361F190E03A
:1039E000880F991FFC01E158F44FC591D491FC0157
:1039F000E756F44FA591B491611109C09FB7F894AF
:103A00008881209582238883EC912E230BC062301D
:103A100061F49FB7F8943881822F8095832388833F
:103A2000EC912E2B2C939FBF06C08FB7F894E881A2
:103A30002E2B28838FBFDF91CF9108951F93CF93B3
:103A4000DF93182FEB0161E0BDDF209711F460E0F8
:103A500004C0CF3FD10531F461E0812FDF91CF91D8
:103A60001F9181CFE12FF0E0E75AF34FE4914E2F01
:103A700050E0FA013197E231F10508F09DC0882746
:103A8000EC57FF4F8F4F0C94406784B5806884BD1E
:103A9000C7BD97C084B5806284BDC8BD92C0809107
:103AA0008000806880938000D0938900C093880054
:103AB00088C080918000806280938000D0938B00CA
:103AC000C0938A007EC080918000886080938000CF
:103AD000D0938D00C0938C0074C08091B00080683A
:103AE0008093B000C093B3006CC08091B00080623E
:103AF0008093B000C093B40064C08091900080684F
:103B000080939000D0939900C09398005AC0809100
:103B10009000806280939000D0939B00C0939A00A5
:103B200050C080919000886080939000D0939D0059
:103B3000C0939C0046C08091A00080688093A00044
:103B40008091A0008F7B8093A000D093A900C093A8
:103B5000A80037C08091A00080628093A000D0931D
:103B6000AB00C093AA002DC08091A0008860809314
:103B7000A000D093AD00C093AC0023C08091200181
:103B8000806880932001D0932901C093280119C037
:103B900080912001806280932001D0932B01C093FB
:103BA0002A010FC080912001886080932001D0936A
:103BB0002D01C0932C0105C0C038D1050CF04CCFAD
:103BC00046CFDF91CF911F9108958F929F92AF9230
:103BD000BF92CF92DF92EF92FF926B017C0175DE74
:103BE0004B015C01C114D104E104F104E9F06DDE84
:103BF000DC01CB0188199909AA09BB09883E9340C9
:103C0000A105B10578F321E0C21AD108E108F10855
:103C100088EE880E83E0981EA11CB11CC114D1044B
:103C2000E104F10421F7DECFFF90EF90DF90CF9019
:103C3000BF90AF909F908F9008952FB7F8946091A8
:103C4000AC077091AD078091AE079091AF072FBF81
:103C500008951F920F920FB60F9211242F933F9346
:103C60008F939F93AF93BF938091AC079091AD07D3
:103C7000A091AE07B091AF073091AB0723E0230FBF
:103C80002D3720F40196A11DB11D05C026E8230F94
:103C90000296A11DB11D2093AB078093AC079093B2
:103CA000AD07A093AE07B093AF078091B007909196
:103CB000B107A091B207B091B3070196A11DB11D44
:103CC0008093B0079093B107A093B207B093B30766
:103CD000BF91AF919F918F913F912F910F900FBE08
:103CE0000F901F9018951F920F920FB60F921124EC
:103CF0000BB60F922F933F934F935F936F937F93E6
:103D00008F939F93AF93BF93EF93FF93E0914D02F7
:103D1000F0914E021995FF91EF91BF91AF919F9154
:103D20008F917F916F915F914F913F912F910F9064
:103D30000BBE0F900FBE0F901F9018951F920F9201
:103D40000FB60F9211240BB60F922F933F934F9300
:103D50005F936F937F938F939F93AF93BF93EF93F3
:103D6000FF93E0914B02F0914C021995FF91EF9176
:103D7000BF91AF919F918F917F916F915F914F9183
:103D80003F912F910F900BBE0F900FBE0F901F9081
:103D900018951F920F920FB60F9211240BB60F9227
:103DA0002F933F934F935F936F937F938F939F9343
:103DB000AF93BF93EF93FF93E0914102F0914202E2
:103DC0001995FF91EF91BF91AF919F918F917F9145
:103DD0006F915F914F913F912F910F900BBE0F907C
:103DE0000FBE0F901F9018951F920F920FB60F9253
:103DF00011240BB60F922F933F934F935F936F93C2
:103E00007F938F939F93AF93BF93EF93FF93E09133
:103E10003F02F09140021995FF91EF91BF91AF9150
:103E20009F918F917F916F915F914F913F912F91D2
:103E30000F900BBE0F900FBE0F901F9018951F9202
:103E40000F920FB60F9211240BB60F922F933F9340
:103E50004F935F936F937F938F939F93AF93BF9392
:103E6000EF93FF93E0914902F0914A021995FF9177
:103E7000EF91BF91AF919F918F917F916F915F91E2
:103E80004F913F912F910F900BBE0F900FBE0F904F
:103E90001F9018951F920F920FB60F9211240BB618
:103EA0000F922F933F934F935F936F937F938F93D3
:103EB0009F93AF93BF93EF93FF93E0914702F091ED
:103EC00048021995FF91EF91BF91AF919F918F910A
:103ED0007F916F915F914F913F912F910F900BBE0A
:103EE0000F900FBE0F901F9018951F920F920FB654
:103EF0000F9211240BB60F922F933F934F935F9322
:103F00006F937F938F939F93AF93BF93EF93FF93A1
:103F1000E0914502F09146021995FF91EF91BF9112
:103F2000AF919F918F917F916F915F914F913F9151
:103F30002F910F900BBE0F900FBE0F901F901895F2
:103F40001F920F920FB60F9211240BB60F922F9360
:103F50003F934F935F936F937F938F939F93AF9311
:103F6000BF93EF93FF93E0914302F09144021995C0
:103F7000FF91EF91BF91AF919F918F917F916F9141
:103F80005F914F913F912F910F900BBE0F900FBEFD
:103F90000F901F901895CF92DF92EF92FF92C090F2
:103FA000B103D090B203E090B303F090B4038091DA
:103FB000B5039091B603BC01990F880B990B0E9431
:103FC000A46E20E030E040EC50E40E944F679B017B
:103FD000AC01C701B6010E949E6E87FF1EC020E0A3
:103FE00030E040E050E4C701B6010E9450670E94F3
:103FF000AD687093A00760939F071FDEDC01CB01C3
:10400000805A9541AF4FBF4F8093A1079093A2076D
:10401000A093A307B093A40708C01092A107109221
:10402000A2071092A3071092A407FF90EF90DF90D1
:10403000CF90089510927A0C1092790C0E946849E2
:104040001092B6031092B503A6DF0E94574A109251
:104050007A0C1092790C0E94684910922E042C98C8
:104060001092B6031092B503109255079FB7F894BB
:10407000E2E0F1E080818F7D80839FBF0895CF9241
:10408000DF92EF92FF920F931F93CF93DF931F92D4
:104090001F92CDB7DEB77C018A018091340288235C
:1040A00009F443C0E6EFF5E084916F019FEFC91A70
:1040B000D90A882341F069837A830E944810F60167
:1040C00069817A81F1CFFB0184916F019FEFC91A59
:1040D000D90A882321F00E944810F601F5CFEAE8BA
:1040E000F9E084916F019FEFC91AD90A882321F062
:1040F0000E944810F601F5CFF7FC0AC0B701FF0C8B
:10410000880B990B0E94F6108AE00E9448100DC09F
:10411000E5E8F9E084917F019FEFE91AF90A882325
:1041200021F00E944810F701F5CF809158078111C6
:1041300008C01092340281E080935807C8010E94A1
:10414000E5170F900F90DF91CF911F910F91FF9086
:10415000EF90DF90CF906ECF1F920F920FB60F921D
:1041600011240BB60F922F933F934F935F936F934E
:104170007F938F939F93AF93BF93CF93DF93EF93EF
:10418000FF9380916E008B7F80936E007894809176
:104190003C0281111CC080912E0480937B078823F0
:1041A00011F02C9A01C02C988091550780937A07C2
:1041B0009FB7882329F0F89480910201806204C09F
:1041C000F894809102018F7D809302019FBF9091AE
:1041D0007B0780913C02981708F42C9890917A07FD
:1041E00080913C02981740F49FB7F89480910201A7
:1041F0008F7D809302019FBF80913C028F5F8F77FC
:1042000080933C02E0913A02F0913B02ED30F105DF
:1042100008F07FC08827EA56FF4F8F4F0C94406705
:1042200088E080937B0085E480937C0080917A0015
:10423000806480937A0081E090E01AC02091780039
:104240003091790080916A0790916B07A0916C077B
:10425000B0916D07820F931FA11DB11D80936A0756
:1042600090936B07A0936C07B0936D0782E090E08A
:1042700090933B0280933A024CC088E080937B008D
:1042800086E480937C0080917A00806480937A0039
:1042900083E090E0EDCF209178003091790080911B
:1042A000660790916707A0916807B0916907820F30
:1042B000931FA11DB11D8093660790936707A0937C
:1042C0006807B093690784E090E0D2CF85E090E082
:1042D000CFCF86E090E0CCCF87E090E0C9CF88E0F8
:1042E00090E0C6CF89E090E0C3CF8AE090E0C0CFF5
:1042F0008BE090E0BDCF10923B0210923A02809189
:1043000065078F5F8093650704C010923B0210928F
:104310003A0280916507803108F4B9C010926507B0
:1043200080912D04811113C080916A0790916B07D1
:104330009093640780936307809166079091670765
:10434000909362078093610781E080932D0480E160
:10435000EAE6F7E0DF011D928A95E9F71092660719
:10436000109267071092680710926907C09163075F
:10437000D0916407D195C195D1098091530790914F
:1043800054079195819591098C179D07C4F460910C
:10439000790C70917A0C072E000C880B990B0E94F7
:1043A000A46E20E030E0A9010E94986918163CF440
:1043B00044EF5AE061E07BE080E090E060DE8091D5
:1043C000380290913902919581959109C817D907C2
:1043D000C4F46091790C70917A0C072E000C880B54
:1043E000990B0E94A46E20E030E0A9010E94986918
:1043F00018163CF444E25BE061E37BE080E090E08F
:104400003EDE2091610730916207809151079091C3
:10441000520782179307C4F06091B5037091B603F9
:10442000072E000C880B990B0E94A46E20E030E050
:10443000A9010E94986918163CF443EE5AE061E025
:104440007BE08FEF9FEF1BDE209136023091370229
:10445000809161079091620782179307C4F0609181
:10446000B5037091B603072E000C880B990B0E94C0
:10447000A46E20E030E0A9010E94986918163CF46F
:1044800043E15BE061E37BE08FEF9FEFF8DD80913C
:104490006E00846080936E00FF91EF91DF91CF9169
:1044A000BF91AF919F918F917F916F915F914F914C
:1044B0003F912F910F900BBE0F900FBE0F901F904A
:1044C00018952F923F924F925F926F927F928F92A8
:1044D0009F92AF92BF92CF92DF92EF92FF920F9393
:1044E0001F93CF93DF9300D000D0CDB7DEB71C0170
:1044F0007A8369832B833C834D835E832701380154
:10450000D7FC02C0C60102C081E090E07C01EE0C45
:10451000FF1CEE0CFF1C8701075A184FA3019201E4
:10452000F80160817181828193810E949E6E88234F
:10453000A9F0F801408251826282738201E010E0AA
:1045400020E030E0A901C301B2010E949869181669
:1045500014F000E010E0F10111830083F10180818B
:10456000918182309105D9F08330910509F45CC0C6
:10457000019709F077C0F701E75AF84F20813181A0
:10458000428153816B817C818D819E810E949E6ED0
:1045900087FD68C082E090E0F1019183808387010C
:1045A000075A184FB401990C880B990B0E94A46EFE
:1045B0009B01AC01F80160817181828193810E942D
:1045C0004F679B01AC016B817C818D819E810E9434
:1045D000986987FD15C031DB6B017C0128EE33E063
:1045E000D5010E944867DC01CB018C0D9D1DAE1DDD
:1045F000BF1DE981FA8180839183A283B38332C096
:104600001CDBE981FA810081118122813381DC0187
:10461000CB01801B910BA20BB30BB7FD23C083E032
:1046200090E0F1019183808343EC5AE063ED7AE0FE
:10463000C60126960FB6F894DEBF0FBECDBFDF9140
:10464000CF911F910F91FF90EF90DF90CF90BF908F
:10465000AF909F908F907F906F905F904F903F9022
:104660002F900DCD26960FB6F894DEBF0FBECDBFAE
:10467000DF91CF911F910F91FF90EF90DF90CF903E
:10468000BF90AF909F908F907F906F905F904F9072
:104690003F902F9008952F923F924F925F926F928A
:1046A0007F928F929F92AF92BF92CF92DF92EF92C2
:1046B000FF920F931F93CF93DF93EC014CEA59E0E5
:1046C00081E090E0FA0125913491C217D3070CF0F4
:1046D0005DC09C0121503109220F331F220F331F6F
:1046E000D901A655B64FFD01659174912855364FF5
:1046F000F901A590B490FC01EE0FFF1FEE0FFF1F14
:10470000E655F64FE590F490FD01C590D490FA017E
:1047100005911491F90125903490072E000C880B17
:10472000990B0E94A46E2B013C01CA19DB09BE0142
:10473000DD0F880B990B0E94A46E4B015C01B70141
:104740006C197D09072E000C880B990B0E94A46E32
:104750009B01AC01C501B4010E94036F6B017C0198
:10476000B80162197309072E000C880B990B0E947F
:10477000A46E9B01AC01C701B6010E943C689B017D
:10478000AC01C301B2010E94506711C001964C5F99
:104790005F4F8D33910509F095CFEAE9FAE0659115
:1047A0007491072E000C880B990B0E94A46EDF9168
:1047B000CF911F910F91FF90EF90DF90CF90BF901E
:1047C000AF909F908F907F906F905F904F903F90B1
:1047D0002F90089580916307909164070E94B849D3
:1047E00060937B0C70937C0C80937D0C90937E0C7B
:1047F00080916107909162074EDF6093B1037093DF
:10480000B2038093B3039093B403A8958FB7F89441
:1048100010922D048FBF08952F923F924F925F9276
:104820006F927F928F929F92AF92BF92CF92DF92C0
:10483000EF92FF920F931F93CF93DF93CDB7DEB725
:104840002C970FB6F894DEBF0FBECDBFC3DFF5D9EE
:1048500069837A838B839C836091790C70917A0C45
:10486000072E000C880B990B0E94A46E20917B0CE4
:1048700030917C0C40917D0C50917E0C04E0802E98
:10488000912CE8E2AE2EB12CC12CD12C7B018C01F5
:1048900065EA77E089EA97E014DE6090790C709021
:1048A0007A0C20907B0C30907C0C40907D0C5090CA
:1048B0007E0CB301072C000C880B990B0E94A46E90
:1048C000A20191010E944F674B015C016093910727
:1048D00070939207809393079093940720ED3CEC9C
:1048E0004CE45DE360911C0270911D0280911E02F8
:1048F00090911F020E94036F6B017C0120918D0734
:1049000030918E0740918F0750919007C201B101FD
:104910000E944F679B01AC01C701B6010E94036F63
:104920006B017C0123E333E343E75FE36091890795
:1049300070918A0780918B0790918C070E94036F7A
:104940009B01AC01C701B6010E94506769877A8755
:104950008B879C876093890770938A0780938B0766
:1049600090938C0720928D0730928E0740928F078C
:104970005092900720E030E040E251E4C501B401DC
:104980000E949869181624F481E0809388078DC0EE
:1049900020E030E040E251ECC501B4010E949E6E7F
:1049A00087FD02C0672821F481E080938807A3C0B7
:1049B00080918807882351F0109284071092850710
:1049C0001092860710928707109288072091240280
:1049D000309125024091260250912702C501B40171
:1049E0000E94036F6B017C016093800770938107C5
:1049F00080938207909383072091840730918507E5
:104A00004091860750918707C501B4010E94506705
:104A10006D837E838F839887609384077093850767
:104A2000809386079093870720912002309121027E
:104A300040912202509123020E94036F9B01AC011E
:104A400060937C0770937D0780937E0790937F0728
:104A5000C701B6010E94506729853A854B855C8560
:104A60000E944F676B017C0120E030E04FE753E488
:104A70000E94986920E030E0A9011816ECF4C50105
:104A8000B4010E949869181684F4A50194016D81FF
:104A90007E818F8198850E944F6760938407709311
:104AA00085078093860790938707C12CD12C1FE739
:104AB000E12E13E4F12E22C0C701B6010E949E6EC2
:104AC00087FF1CC020E030E0A901C501B4010E94AD
:104AD0009E6E87FF10C0A50194016D817E818F813C
:104AE00098850E944F676093840770938507809331
:104AF000860790938707C12CD12C760160915607C9
:104B000070915707072E000C880B990B0E94A46E1A
:104B10009B01AC01C201B1010E9498691816CCF446
:104B200060913D0270913E02072E000C880B990B9C
:104B30000E94A46E9B01AC01C201B1010E949E6E55
:104B400087FF07C0C701B6010E94AD6875956795DC
:104B500001C060E060932E048091730C9091740CFE
:104B6000A091750CB091760C0097A105B10531F1BB
:104B700029813A814B815C81281B390B4A0B5B0BE5
:104B800057FD1CC06091770C7091780C072E000CBB
:104B9000880B990B0E94A46E9B01AC01C201B1016C
:104BA0000E949E6E87FF08C041E65BE060E77BE005
:104BB00080E090E064DA02C00E9468498091A10719
:104BC0009091A207A091A307B091A4070097A10517
:104BD000B10559F129813A814B815C81281B390B40
:104BE0004A0B5B0B57FD21C060919F077091A00796
:104BF000072E000C880B990B0E94A46E9B01AC0140
:104C00006091B1037091B2038091B3039091B403AA
:104C10000E949E6E87FF08C043E45BE062E57BE094
:104C20008FEF9FEF2CDA01C0B6D980919B0790914E
:104C30009C07A0919D07B0919E0729813A814B81E5
:104C40005C81281B390B4A0B5B0B57FD70C08981B7
:104C50009A81AB81BC8188579C4EAF4FBF4F8093E8
:104C60009B0790939C07A0939D07B0939E0760912C
:104C7000B5037091B603072E000C880B990B0E94A8
:104C8000A46E2091B1033091B2034091B3035091CF
:104C9000B403E2E08E2E912CF4E1AF2EB12CCC24A3
:104CA000CA94DC2C7B018C0165E977E089E997E007
:104CB00008DCC090B103D090B203E090B303F09051
:104CC000B40320E030E040EA50E4C701B6010E949E
:104CD0009869181614F520E030E046E153E4C70166
:104CE000B6010E949E6E87FF18C06091B503709157
:104CF000B603072E000C880B990B0E94A46E9B0133
:104D0000AC01C701B6010E949E6E87FD02C080E023
:104D100001C08FE7809355070AC0109255079FB7CF
:104D2000F894809102018F7D809302019FBF2C96A1
:104D30000FB6F894DEBF0FBECDBFDF91CF911F91AC
:104D40000F91FF90EF90DF90CF90BF90AF909F902A
:104D50008F907F906F905F904F903F902F9008952D
:104D60000F931F93CF93DF93EC0188819981019773
:104D700019F40E941D1E04C06A857B858C859D8563
:104D80000E811F8128853985601B710B820B930B67
:104D900028EE33E040E050E00E94AA728A819B81B5
:104DA000AC81BD81BC01CD01620F731F841F951FB3
:104DB000DF91CF911F910F9108950F931F93CF9380
:104DC000DF93EC010197B9F480919C0390919D03CE
:104DD000A0919E03B0919F030091A0031091A103A5
:104DE0002091A2033091A303BC01CD01601B710B84
:104DF000820B930B18C040919C0350919D036091CE
:104E00009E0370919F038091A0039091A103A091B4
:104E1000A203B091A3038A019B01080F191F2A1F47
:104E20003B1FC901B8010E94A46E20E030E040E0C1
:104E30005FE30E94036F0E94AD68CC0FDD1FCC0FB3
:104E4000DD1FCE5FD94F688379838A839B83E0918E
:104E50004F07F091500782899389A489B58980937F
:104E60004B0790934C07A0934D07B0934E07DF91EB
:104E7000CF911F910F910895CF92DF92EF92FF9201
:104E80001F93CF93DF93EC01CC0FDD1FCC0FDD1F01
:104E900082309105E8F51FB7F8940197B9F4809135
:104EA0009C0390919D03A0919E03B0919F03C0909D
:104EB000A003D090A103E090A203F090A303BC0153
:104EC000CD016C197D098E099F0918C040919C0382
:104ED00050919D0360919E0370919F038091A00368
:104EE0009091A103A091A203B091A3036A017B0159
:104EF000C80ED91EEA1EFB1EC701B6010E94A46E91
:104F000020E030E040E05FE30E94036F1FBF0CC071
:104F10002FB7F894FE01E456FC4F608171818281C5
:104F200093812FBF0E94A46ECE50DA4F2881398121
:104F30004A815B810E94036FDF91CF911F91FF90A7
:104F4000EF90DF90CF9008959091A30C8091A40CE6
:104F5000981719F00E940418F7CF089580916B0CF0
:104F600080FF03C089988FEF02C0899A81E0809307
:104F7000570280916B0C81FF03C08F988FEF02C0A6
:104F80008F9A81E08093580280916B0C9FB782FFCB
:104F900009C0F89480910B018D7F80930B019FBF16
:104FA0008FEF08C0F89480910B01826080930B0111
:104FB0009FBF81E08093590280916B0C83FF03C0F7
:104FC000169A8FEF02C0169881E080935A020895D6
:104FD0009091A30C8091A40C981731F08091A40CAF
:104FE0008F5F8F708093A40C08951F920F920FB65D
:104FF0000F9211240BB60F928F929F92AF92BF9295
:10500000CF92DF92EF92FF920F931F932F933F93D4
:105010004F935F936F937F938F939F93AF93BF93C0
:10502000EF93FF93CF93DF9300D01F92CDB7DEB7FE
:1050300080916E008B7F80936E0080916F008D7FDA
:1050400080936F0078948091490C90914A0C00975E
:1050500069F0019790934A0C8093490C1092500785
:1050600010924F07B5DF88EC90E09EC1E0914F07AA
:10507000F0915007309709F09CC19091A30C80915A
:10508000A40C981759F0E091A40C29E4E29FF001D8
:105090001124E854F84F808188608083F093500792
:1050A000E0934F07309709F47DC152A180916B0CBA
:1050B000418158130AC0242F30E080915B02082EF2
:1050C000000C990B2817390729F050936B0C40936B
:1050D0005B0244DF1092670C1092680C1092690C0E
:1050E00010926A0CE0914F07F091500727A930AD5C
:1050F00021344CE9340728F421325EE4350748F0C6
:1051000002C020E43CE9369527953695279584E042
:1051100007C0213167E2360730F03695279582E0E7
:105120008093660C08C081E08093660C20323105C4
:1051300010F420E230E0490180E2881A91088114DD
:1051400098E09906F0F0E92DFF27EE0FFF1FEE0F14
:10515000FF1FCF0181569F4EFC013296459154911D
:10516000B82DAA27B59F9001B49F210D3A1F069430
:105170002A1F3A1F1124FC0185919491821B930BE5
:1051800020C0C401969587958C7F8156934FFC0172
:1051900025913491FC01329665917491A401477078
:1051A0005527649FC001659F900D749F900D112439
:1051B00043E0969587954A95E1F7F901E81BF90BCD
:1051C000CF018436910588F403E7A02E03E0B02ECA
:1051D000D5018D915D01882319F00E944810F8CF08
:1051E000C4010E945C4984E690E09093650C809332
:1051F000640C8091660C8093630CE0914F07F091F2
:10520000500723AD34AD3093620C2093610C2134F0
:10521000BCE93B0728F42132EEE43E0748F002C027
:1052200020E43CE9369527953695279584E007C01C
:105230002131F7E23F0730F03695279582E08093E1
:10524000660C08C081E08093660C2032310510F4B2
:1052500020E230E0490140E2841A9108811458E0CC
:105260009506F0F0E92DFF27EE0FFF1FEE0FFF1F51
:10527000CF0181569F4EFC01329645915491682D85
:10528000AA27659F9001649F210D3A1F06942A1F4B
:105290003A1F1124FC0185919491821B930B20C02D
:1052A000C401969587958C7F8156934FFC0125917B
:1052B0003491FC01329665917491A4014770552791
:1052C000649FC001659F900D749F900D112473E041
:1052D000969587957A95E1F7D901A81BB90BCD0171
:1052E0008436910588F453E7A52E53E0B52EF501D9
:1052F00081915F01882319F00E944810F8CFC40102
:105300000E945C4984E690E0AC0160E070E040936C
:105310005D0C50935E0C60935F0C7093600C9093E7
:10532000890080938800E0914F07F09150078289AF
:105330009389A489B589B695A79597958795B095D2
:10534000A095909581959F4FAF4FBF4F8093590C7B
:1053500090935A0CA0935B0CB0935C0C8093550C0B
:105360009093560CA093570CB093580C8093510C0B
:105370009093520CA093530CB093540C80934D0C0B
:1053800090934E0CA0934F0CB093500C10924B077F
:1053900010924C0710924D0710924E0782E08093B6
:1053A000480C07C080ED97E09093890080938800B7
:1053B00019C480910E02882309F449C08091480CD9
:1053C000882309F444C0E0914F07F09150074281CF
:1053D00053816481758186809780A084B184809197
:1053E0006B0C481559056A057B0509F05CC481FB07
:1053F000222720F9982F9170921709F454C4E09154
:105400004F07F091500746815781608571858280F2
:105410009380A480B58080916B0C84169506A606B7
:10542000B70609F066C481FB222720F9982F9170F6
:1054300092135FC480916B0C82FD01C480914C0C6F
:1054400080934B0C8091480C81508093480C20E055
:105450008091660C90E0422F022E000C550B4817ED
:1054600059070CF0ACC1E0914F07F0915007409103
:105470004D0C50914E0C60914F0C7091500C8281EC
:105480009381A481B581840F951FA61FB71F8093B8
:105490004D0C90934E0CA0934F0CB093500C1816DB
:1054A00019061A061B060CF4889AE0914F07F09132
:1054B00050074091510C5091520C6091530C7091D7
:1054C000540C86819781A085B185840F951FA61FF6
:1054D000B71F8093510C9093520CA093530CB09330
:1054E000540C181619061A061B060CF48E9AE09135
:1054F0004F07F09150074091550C5091560C609118
:10550000570C7091580C82859385A485B585840FBE
:10551000951FA61FB71F8093550C9093560CA09310
:10552000570CB093580C181619061A061B0644F4AB
:105530009FB7F89480910B01886080930B019FBF07
:10554000E0914F07F09150074091590C50915A0C3F
:1055500060915B0C70915C0C86859785A089B18900
:10556000840F951FA61FB71F8093590C90935A0C58
:10557000A0935B0CB0935C0C181619061A061B0658
:105580000CF4149A80914D0C90914E0CA0914F0CFC
:10559000B091500C181619061A061B0684F5E091F6
:1055A0004F07F09150074289538964897589841B9C
:1055B000950BA60BB70B80934D0C90934E0CA093BC
:1055C0004F0CB093500C8091570240919C03509126
:1055D0009D0360919E0370919F03082E000C990B10
:1055E000AA0BBB0B840F951FA61FB71F80939C03AC
:1055F00090939D03A0939E03B0939F0388988091FE
:10560000510C9091520CA091530CB091540C18165F
:1056100019061A061B0684F5E0914F07F091500712
:105620004289538964897589841B950BA60BB70B36
:105630008093510C9093520CA093530CB093540C44
:10564000809158024091A0035091A1036091A20360
:105650007091A303082E000C990BAA0BBB0B840FAF
:10566000951FA61FB71F8093A0039093A103A0933B
:10567000A203B093A3038E988091550C9091560C81
:10568000A091570CB091580C181619061A061B0653
:10569000BCF5E0914F07F091500742895389648926
:1056A0007589841B950BA60BB70B8093550C9093B3
:1056B000560CA093570CB093580C8091590240910E
:1056C000A4035091A5036091A6037091A703082E2F
:1056D000000C990BAA0BBB0B840F951FA61FB71FBD
:1056E0008093A4039093A503A093A603B093A7036C
:1056F0009FB7F89480910B01877F80930B019FBF28
:105700008091590C90915A0CA0915B0CB0915C0C5B
:10571000181619061A061B0684F5E0914F07F0913A
:1057200050074289538964897589841B950BA60BA0
:10573000B70B8093590C90935A0CA0935B0CB093C9
:105740005C0C80915A024091A8035091A90360918A
:10575000AA037091AB03082E000C990BAA0BBB0B8C
:10576000840F951FA61FB71F8093A8039093A903CA
:10577000A093AA03B093AB03149880914B07909128
:105780004C07A0914D07B0914E070196A11DB11D88
:1057900080934B0790934C07A0934D07B0934E070F
:1057A000E0914F07F09150074289538964897589C8
:1057B00084179507A607B70720F42F5F49CEB12CB1
:1057C00002C0BB24B39440914B0750914C076091A9
:1057D0004D0770914E07E0904F07F0905007F7018A
:1057E00086899789A08DB18D84179507A607B7077D
:1057F00008F4DCC040915D0C50915E0C60915F0C30
:105800007091600C068D178D20A131A1AA27419FB0
:10581000B12D529FC001629F900D619F800D911D1F
:10582000429FB00D811D9A1F519FB00D811D9A1F7F
:10583000609FB00D811D9A1F509FB10D8A1F9A1F46
:10584000B6958A1F9A1F349F800D911D359F900D2C
:10585000112423AD34AD820F931F9093620C80937B
:10586000610C47A950AD61AD72ADA0E0B0E0481742
:1058700059076A077B0720F45093620C4093610C30
:105880008091610C9091620C8134BCE99B0728F4F3
:105890008132EEE49E0748F002C080E49CE99695D0
:1058A00087959695879524E007C08131F7E29F0799
:1058B00030F09695879522E02093660C08C021E091
:1058C0002093660C8032910510F480E290E08C0108
:1058D00000521109011528E01207D8F0E12FFF2727
:1058E000EE0FFF1FEE0FFF1FCF0181569F4EFC01F1
:1058F000329645915491AA27059F9001049F210D4E
:105900003A1F06942A1F3A1F1124FC018591949195
:105910001CC09801369527952C7F2156334FF901ED
:1059200085919491F901329665917491A80147701F
:105930005527649F9001659F300D749F300D112491
:10594000B3E036952795BA95E1F7821B930B843621
:10595000910588F4F3E7EF2EF3E0FF2ED7018D9148
:105960007D01882319F00E944810F8CFC8010E94D9
:105970005C4984E690E09093890080938800409190
:105980005D0C50915E0C60915F0C7091600C8A010F
:105990009B01080F191F211D311D00935D0C1093F1
:1059A0005E0C20935F0C3093600C00C140914B075C
:1059B00050914C0760914D0770914E07F701828D11
:1059C000938DA48DB58D84179507A607B70708F0AA
:1059D000E1C02091670C3091680C4091690C5091A6
:1059E0006A0C29833A834B835C83468D578D60A173
:1059F00071A109811A812B813C81AA27059FB12DB4
:105A0000169F6001269FD00C259FC00CD11C069FBD
:105A1000B00DC11CDA1E159FB00DC11CDA1E249FEB
:105A2000B00DC11CDA1E149FB10DCA1EDA1EB69548
:105A3000CA1EDA1E709FC00CD11C719FD00C11249D
:105A40008091610C9091620CFF96C816D90680F483
:105A50008C199D0940815181628173816C01E12C17
:105A6000F12CC416D506E606F70620F4CA0102C0DA
:105A70008081918181341CE9910728F481322EE4E0
:105A8000920748F002C080E49CE996958795969528
:105A9000879524E007C0813137E2930730F096956F
:105AA000879522E02093660C08C021E02093660CC5
:105AB0008032910510F480E290E08C0100521109CF
:105AC000011548E01407E8F0E12FFF27EE0FFF1F54
:105AD000EE0FFF1FCF0181569F4EFC01329645917C
